:060000000A128A110E280D
:10000800FE00030EF4000408F5000A08F6000A12C0
:100018008A11EC280A128A111128F701F801F9014E
:10002800FA01FB0183120313AA01AB01AC01AD0174
:10003800AE01AF0183010A128A11892983120313C1
:10004800A601A11F282829283028A009A109A00A4B
:100058000319A10AA601A60AA31F332834283D289C
:10006800A209A309A20A0319A30A0130A4002408BB
:10007800A606A701A8012008210403194428452839
:100088007C28A501A50A532801300310A00DA10D55
:10009800FF3E031D49280130A4002408A507A11F1D
:1000A80056285728482801300310A70DA80DFF3EF1
:1000B800031D582821082302031D64282008220252
:1000C800031C672868286F282008A2022108031C3F
:1000D800A303A302271401300310A10CA00CFF3EB8
:1000E800031D70280130A502031D7B287C28572892
:1000F80026080319802881288628A709A809A70A9D
:100108000319A80A2808A1002708A00008008312DC
:100118000313A200B1283F30EB280630EB285B30F0
:10012800EB284F30EB286630EB286D30EB287D301C
:10013800EB280730EB287F30EB286F30EB2877303F
:10014800EB287C30EB283930EB285E30EB2879300F
:10015800EB287130EB28EB30EB282208A000A10136
:100168002108003A0319B928AF282008003A0319D2
:100178008F28013A03199128033A03199328013A61
:1001880003199528073A03199728013A031999285A
:10019800033A03199B28013A03199D280F3A0319BA
:1001A8009F28013A0319A128033A0319A328013A01
:1001B8000319A528073A0319A728013A0319A928FA
:1001C800033A0319AB28013A0319AD28AF280800F0
:1001D800831203130C1CF128F22818290A128A1119
:1001E80074220A128A110829831203132F08870020
:1001F800091489101829831203132E08870009107F
:1002080089141829FB0118297B08F200F3017308E7
:10021800003A0319102906297208003A0319F82828
:10022800013A0319FF2806290B1C1B291C2922291E
:100238000A128A1142210A128A110B10831203131F
:100248000C1F2729282939291F0CF200720C0F3995
:10025800003A03193029312938291E08F200F30120
:100268007208AA007308AB000C1376088A00750898
:100278008400740E8300FE0E7E0E090083120313A1
:10028800061B472948294C290130F9000030FA009B
:10029800061F4F295029662979037A04031D552919
:1002A800562966290D30F100FB30F000F00B5A2971
:1002B800F10B5A295F29831203130808013E8800AD
:1002C800F901FA01861B69296A296E290130F700AC
:1002D8000030F800861F712972298829770378046D
:1002E800031D7729782988290D30F100FB30F000AB
:1002F800F00B7C29F10B7C29812983120313080850
:10030800FF3E8800F701F80108000A128A117C22D2
:100318000A128A110A128A11F5210A128A110A127E
:100328008A1134220A128A110A128A115E220A12CA
:100338008A1171300A128A1149220A128A1183120B
:1003480003139F142A0885000A128A11CC210A1265
:100358008A110A128A111B220A128A1183120313A4
:100368002B08803AA90080302902031DBD290808FE
:100378002A02031CC029C129C529831203130915A0
:10038800A329831203130911A3290A128A110E281B
:10039800831203132A080F39AD001030A000003073
:1003A800A1002B08A3002A08A2000A128A11222001
:1003B8000A128A11831203132008AC002D080A12AE
:1003C8008A118B200A128A1183120313AF002C089A
:1003D8000A128A118B200A128A1183120313AE00A3
:1003E8000800831603178801203089008316031339
:1003F800880183120313880183160313850183126E
:1004080003138501831603138701831203138701DE
:1004180083160313890183120313890183160313B7
:100428008617061706148312031386010800212A6B
:10043800FB01FB0A332AFB01332A7B0883120313CF
:10044800A000A1012108003A03192B2A1F2A20081D
:10045800003A03191C2A013A03191F2A1F2A080007
:100468008B158316031381139517151796171617EF
:100478000B108B170B17831203130C13831603131C
:100488000C14831203130C10080083120313A10029
:10049800831603130C179F139F121F128312031343
:1004A80021089F000F3083120313A000A00B5A2AC3
:1004B8005D2A080083120313901210129011101570
:1004C800901010140A128A116C220A128A1108005C
:1004D800FE30831203138F000C308E000C100800BE
:1004E800FE30831203138F000C308E000C100800AE
:0E04F800831603130F140F178F160F12080030
:08400000FF3FFF3FFF3FFF3FC0
:04400E00D420FF3F7C
:00000001FF
